:100000000C944D010C946C010C946C010C946C01DB
:100010000C946C010C946C010C946C010C946C01AC
:100020000C946C010C946C010C946C010C946C019C
:100030000C946C010C946C010C946C010C946C018C
:100040000C946C010C946C010C946C010C946C017C
:100050000C946C010C946C010C946C010C946C016C
:100060000C946C010C946C010C946C010C946C015C
:100070000C946C010C946C010C946C010C946C014C
:100080000C946C010C946C010C946C0105A84CCD83
:10009000B2D44EB93836A9020C50B9918688083CC2
:1000A000A6AAAA2ABE000000803F000000000000AF
:1000B000002F00000007000700147F147F14242A7B
:1000C0007F2A12323408162636495522500005037D
:1000D0000000001C2241000041221C0014083E08C0
:1000E0001408083E080800005030001010101010CE
:1000F000006060000020100804023E5149453E00A7
:10010000427F400042615149462141454B3118141C
:10011000127F1027454545393C4A4949300171094C
:1001200005033649494936064949291E0036360035
:100130000000563600000814224100141414141450
:1001400000412214080201510906324959513E7EEC
:100150001111117E7F494949363E414141227F417B
:1001600041221C7F494949417F090909013E414912
:10017000497A7F0808087F00417F41002040413FC5
:10018000017F081422417F404040407F020C027FE3
:100190007F0408107F3E4141413E7F090909063E28
:1001A0004151215E7F0919294646494949310101DA
:1001B0007F01013F4040403F1F2040201F3F40380B
:1001C000403F6314081463070870080761514945EC
:1001D00043007F414100552A552A550041417F0087
:1001E000040201020440404040400001020400209B
:1001F000545454787F484444383844444420384464
:1002000044487F3854545418087E0901020C525255
:10021000523E7F0804047800447D40002040443D65
:10022000007F1028440000417F40007C04180478BF
:100230007C0804047838444444387C1414140808B6
:100240001414187C7C080404084854545420043FB7
:100250004440203C4040207C1C2040201C3C40303E
:10026000403C44281028440C5050503C4464544CAA
:1002700044007F3E1C08081C3E7F00087C7E7C08F2
:10028000103E7E3E103E3E3E3E3E007F3E1C080E2F
:100290001111110E7F000000000011241FBECFEFCE
:1002A000D0E1DEBFCDBF12E0A0E0B1E0E6E8F2E2CF
:1002B00000E00BBF02C007900D92A830B107D9F73C
:1002C0001AE0A8E0B2E001C01D92AC30B107E1F73E
:1002D0000E946E010C9441110C940000DF93CF93A7
:1002E00000D000D0CDB7DEB7A1E3B0E0E1E3F0E0AD
:1002F0008081807E8C93EAE3F0E080EE80830E9430
:1003000041030E94FE0484E190E09C838B838B81F7
:100310009C810A969A838983E0E3F0E08081882FAC
:1003200090E081709070009771F40E94FE048B81C0
:100330009C810A969C838B838B819C8129813A8145
:10034000B9010E94EA01E0E3F0E08081882F90E0AB
:1003500084709070009771F40E94FE048B819C81E0
:100360000A979C838B838B819C8129813A81B90177
:100370000E94EA01E0E3F0E08081882F90E088703D
:100380009070009771F40E94FE0489819A810A9608
:100390009A8389838B819C8129813A81B9010E944A
:1003A000EA01E0E3F0E08081882F90E082709070B5
:1003B000009709F0B1CF0E94FE0489819A810A97C3
:1003C0009A8389838B819C8129813A81B9010E941A
:1003D000EA01A2CFDF93CF93CDB7DEB728970FB650
:1003E000F894DEBF0FBECDBF9E838D8378876F8369
:1003F0008D819E819C838B8320C08F8198859A8379
:1004000089830CC08B819C8129813A81B9010E942A
:10041000E10589819A8101969A8389838F819885E4
:100420009C01265F3F4F89819A818217930754F37D
:100430008B819C8101969C838B838D819E819C0105
:10044000265F3F4F8B819C8182179307B4F22896D9
:100450000FB6F894DEBF0FBECDBFCF91DF910895E8
:100460008F929F92AF92BF92CF92DF92EF92FF92C4
:100470000F931F93DF93CF93CDB7DEB762970FB67D
:10048000F894DEBF0FBECDBF9E878D87788B6F87B8
:100490005A8B498B84EB90E09C878B8786E696E6A7
:1004A000A6EABFE38F839887A987BA871E821D8239
:1004B000CDC08B859C85AA2797FDA095BA2FBC013E
:1004C000CD010E94690C9B01AC0160E070E084EBFF
:1004D00093E40E942D0BDC01CB017C018D018D8109
:1004E0009E81AA2797FDA095BA2FBC01CD010E943D
:1004F000690C9B01AC01C801B7010E94330ADC0101
:10050000CB01BC01CD012BED3FE049E450E40E945A
:10051000330ADC01CB01BC01CD0120E030E044E333
:1005200053E40E942D0BDC01CB0189839A83AB83BA
:10053000BC838D859E85AA2797FDA095BA2FBC0107
:10054000CD010E94690C5B016C0189819A81AB81AC
:10055000BC81BC01CD010E946E0F7B018C01898999
:100560009A89AA2797FDA095BA2FBC01CD010E94B8
:10057000690C9B01AC01C801B7010E94330ADC0180
:10058000CB01BC01CD012F81388549855A850E9458
:10059000330ADC01CB019C01AD01C601B5010E940B
:1005A000060ADC01CB01BC01CD010E94CC0FDC01AD
:1005B000CB01BC01CD010E94C70CDC01CB014C0179
:1005C0008F859889AA2797FDA095BA2FBC01CD01E8
:1005D0000E94690C5B016C0189819A81AB81BC81AD
:1005E000BC01CD010E94EC0F7B018C0189899A89A5
:1005F000AA2797FDA095BA2FBC01CD010E94690CD6
:100600009B01AC01C801B7010E94330ADC01CB0198
:100610009C01AD01C601B5010E94060ADC01CB01B7
:10062000BC01CD010E94CC0FDC01CB01BC01CD018E
:100630000E94C70CDC01CB019C01C401B9010E94DE
:10064000E1058D819E8101969E838D832D813E8162
:100650008B859C85281739070CF42BCF62960FB633
:10066000F894DEBF0FBECDBFCF91DF911F910F91E8
:10067000FF90EF90DF90CF90BF90AF909F908F90C2
:100680000895DF93CF93CDB7DEB7AA970FB6F8944E
:10069000DEBF0FBECDBFA5E3B0E0E5E3F0E08081B3
:1006A00081608C93A4E3B0E0E4E3F0E080818F61AB
:1006B0008C9380E090E0A0E7B1E48FA398A7A9A76E
:1006C000BAA76FA178A589A59AA520E030E04AE7EE
:1006D00053E40E94330ADC01CB018BA39CA3ADA39E
:1006E000BEA36BA17CA18DA19EA120E030E040E8DB
:1006F0005FE30E94390C88232CF481E090E09AA3F8
:1007000089A33FC06BA17CA18DA19EA120E03FEFFA
:100710004FE757E40E94D90B18164CF56FA178A546
:1007200089A59AA520E030E040E251E40E94330A16
:10073000DC01CB01BC01CD010E945D08DC01CB01D5
:100740009AA389A30FC089E190E098A38F8F8F8D22
:1007500098A10197F1F798A38F8F89A19AA101978A
:100760009AA389A389A19AA1009769F714C06BA1E4
:100770007CA18DA19EA10E945D08DC01CB019AA302
:1007800089A389A19AA19E8F8D8F8D8D9E8D0197B2
:10079000F1F79E8F8D8FA5E3B0E0E5E3F0E0808177
:1007A0008E7F8C9380E090E0A0E7B1E4898F9A8FF0
:1007B000AB8FBC8F698D7A8D8B8D9C8D20E030E066
:1007C0004AE753E40E94330ADC01CB018D8B9E8BF8
:1007D000AF8BB88F6D897E898F89988D20E030E04E
:1007E00040E85FE30E94390C88232CF481E090E01C
:1007F0009C8B8B8B3FC06D897E898F89988D20E083
:100800003FEF4FE757E40E94D90B18164CF5698D5E
:100810007A8D8B8D9C8D20E030E040E251E40E9487
:10082000330ADC01CB01BC01CD010E945D08DC0173
:10083000CB019C8B8B8B0FC089E190E09A8B898BCD
:1008400089899A890197F1F79A8B898B8B899C8981
:1008500001979C8B8B8B8B899C89009769F714C0BF
:100860006D897E898F89988D0E945D08DC01CB019E
:100870009C8B8B8B8B899C89988B8F878F85988994
:100880000197F1F7988B8F87A5E3B0E0E5E3F0E0FF
:10089000808181608C9380E090E0A0E7B1E48B8759
:1008A0009C87AD87BE876B857C858D859E8520E086
:1008B00030E04AE753E40E94330ADC01CB018F8326
:1008C0009887A987BA876F81788589859A8520E07E
:1008D00030E040E85FE30E94390C88232CF481E08B
:1008E00090E09E838D833FC06F81788589859A854E
:1008F00020E03FEF4FE757E40E94D90B18164CF564
:100900006B857C858D859E8520E030E040E251E45A
:100910000E94330ADC01CB01BC01CD010E945D08BD
:10092000DC01CB019E838D830FC089E190E09C8325
:100930008B838B819C810197F1F79C838B838D81C5
:100940009E8101979E838D838D819E81009769F79B
:1009500014C06F81788589859A850E945D08DC01C5
:10096000CB019E838D838D819E819A83898389812A
:100970009A810197F1F79A838983A5E3B0E0E5E3D3
:10098000F0E0808182608C938BEE60E00E94B00684
:1009900083E260E00E94B00681E860E00E94B00659
:1009A00084E660E00E94B0068FEA60E00E94B00634
:1009B0008CEC60E00E94B0060E94FE04AA960FB67E
:1009C000F894DEBF0FBECDBFCF91DF910895DF93C6
:1009D000CF930F92CDB7DEB7898381E260E00E94AA
:1009E000B0068981806860E00E94B00680E260E025
:1009F0000E94B0060F90CF91DF910895DF93CF93BF
:100A000000D000D0CDB7DEB71C821B8236C08B81F0
:100A1000806B60E00E94B00680E160E00E94B0065A
:100A200080E060E00E94B0061A8219821CC080E05B
:100A300061E00E94B00689819A812B813C81880FF8
:100A4000991F880F991F880F991F820F931F880F76
:100A5000991FFC01E65FFD4F1182108289819A8106
:100A600001969A83898389819A8180389105FCF265
:100A70008B819C8101969C838B838B819C818830A8
:100A800091052CF280EB60E00E94B00680E160E00E
:100A90000E94B00680E060E00E94B00610920B0A4F
:100AA00010920A0A10920902109208020F900F90F9
:100AB0000F900F90CF91DF910895DF93CF9300D0E7
:100AC000CDB7DEB789836A838981282F30E0C901D9
:100AD000880F991F820F931F880F991F90930B0AFD
:100AE00080930A0A8A81882F90E09093090280936C
:100AF00008020E9487060F900F90CF91DF91089512
:100B0000DF93CF9300D0CDB7DEB789836A83898125
:100B1000882F90E090930B0A80930A0A8A81882F8D
:100B200090E090930902809308020E9487060F903C
:100B30000F90CF91DF910895DF93CF9300D000D035
:100B40000F92CDB7DEB78D830E9487061C8221C02D
:100B50008D81282F30E0C901880F991F880F991FB8
:100B6000280F391F8C81882F90E0820F931F805AA5
:100B7000904086559F4F9B838A83EA81FB818491B5
:100B800089838981880F61E00E94B0068C818F5F24
:100B90008C838C818530E0F280E061E00E94B006B9
:100BA00080910A0A90910B0A069690930B0A809303
:100BB0000A0A0F900F900F900F900F90CF91DF9136
:100BC0000895DF93CF93CDB7DEB760970FB6F89453
:100BD000DEBF0FBECDBF9C878B877E876D871C8253
:100BE0001B8281E090E09A8389838D859E85988B16
:100BF0008F878F85988999232CF48F8598890796FC
:100C0000988B8F878F8598899595879595958795EA
:100C1000959587959E838D838D859E8528E030E010
:100C2000B9010E94100F9C838B838B819C819887D4
:100C30008F830BC089819A81880F991F9A8389833A
:100C40008F819885019798878F838F819885181653
:100C5000190684F38B859C852D813E81880F991F11
:100C6000880F991F880F991F820F931F880F991F54
:100C7000FC01E65FFD4F2081318189819A81822BC1
:100C8000932B9A8389838B859D81692F0E94800590
:100C9000898161E00E94B0068B859C852D813E8113
:100CA000880F991F880F991F880F991F820F931F14
:100CB000880F991FFC01E65FFD4F89819A8191831E
:100CC000808360960FB6F894DEBF0FBECDBFCF9184
:100CD000DF910895DF93CF9300D0CDB7DEB79A832D
:100CE00089830BC0E981FA81208189819A810196EB
:100CF0009A838983822F0E949C05E981FA818081F1
:100D0000882381F70F900F90CF91DF910895DF93A3
:100D1000CF93CDB7DEB78091080290910902806B26
:100D200060E00E94B00680910A0A90910B0A8F70D1
:100D300060E00E94B00680910A0A90910B0A807FC1
:100D400090709595879595958795959587959595A7
:100D50008795806160E00E94B006CF91DF91089591
:100D6000DF93CF9300D000D00F92CDB7DEB78C8346
:100D70006D83A4E3B0E0E4E3F0E080818C608C93C9
:100D8000A5E3B0E0E5E3F0E080818D7F8C938D8179
:100D9000813041F4A5E3B0E0E5E3F0E080818460D8
:100DA0008C9307C0A5E3B0E0E5E3F0E080818B7FA2
:100DB0008C93198242C08C81482F50E08981282F62
:100DC00030E087E090E0821B930B9A0102C03595DA
:100DD00027958A95E2F7C90181709070882341F0C8
:100DE000A5E3B0E0E5E3F0E0808188608C9307C084
:100DF000A5E3B0E0E5E3F0E08081877F8C93A5E395
:100E0000B0E0E5E3F0E0808180618C931B821A8280
:100E100005C08A819B8101969B838A838A819B81FD
:100E200084309105B4F3A5E3B0E0E5E3F0E0808120
:100E30008F7E8C9389818F5F89838981883008F4C4
:100E4000BACFA5E3B0E0E5E3F0E0808182608C9367
:100E5000A4E3B0E0E4E3F0E08081837F8C93A5E33A
:100E6000B0E0E5E3F0E080818C608C930F900F9010
:100E70000F900F900F90CF91DF910895DF93CF9354
:100E8000CDB7DEB72C970FB6F894DEBF0FBECDBF3F
:100E900098878F837A8769875C874B871A82198244
:100EA00089859A8527E030E0B9010E94100FCB01B7
:100EB0009C838B8389859A8527E030E0B9010E9465
:100EC000100F9A83898389819A81009729F481E0A0
:100ED00090E09A83898312C081E090E09E838D83A5
:100EE0008D819E81098002C0880F991F0A94E2F7C4
:100EF0009E838D838D819E819A8389838B81806B74
:100F000060E00E94B00680E160E00E94B0068F8140
:100F100060E00E94B0061E821D8209C0898161E0E6
:100F20000E94B0068D819E8101969E838D832D81C6
:100F30003E818B859C852817390784F32C960FB644
:100F4000F894DEBF0FBECDBFCF91DF910895DF9340
:100F5000CF93CDB7DEB760970FB6F894DEBF0FBE64
:100F6000CDBF9C878B877E876D87588B4F871C8270
:100F70001B821A8219828D859E8527E030E0B90197
:100F80000E94100FCB019E838D838D859E8527E067
:100F900030E0B9010E94100F9C838B838B819C8170
:100FA00098878F831A86198619C08F81988599230F
:100FB0002CF089819A8101969A83898389819A810B
:100FC000880F991F9A8389838F81988501979887C5
:100FD0008F8389859A8501969A87898789859A85DD
:100FE0008730910514F389819A81880F991F9A831C
:100FF000898355C08D819E819A8789874AC089855A
:10100000806B60E00E94B00680E160E00E94B00664
:1010100080E060E00E94B00618861F8230C02F81F9
:1010200038858B859C852817390701F5898161E012
:101030000E94B00681E890E098878F838AE090E074
:101040009A8789872F8538898B819C81A901481BC4
:10105000590BCA01988B8F878D819E8101969E8343
:101060008D838FEF90E09A83898304C080E061E0F4
:101070000E94B0068F819885019698878F838F8113
:101080009885803891055CF289859A8501969A87C2
:10109000898789859A85883091050CF4B0CF8F8532
:1010A0009889009709F0A6CF60960FB6F894DEBF36
:1010B0000FBECDBFCF91DF910895EF92FF920F93B6
:1010C0001F937B018C0120E030E040E05FE40E9450
:1010D000090C88238CF0C801B70120E030E040E023
:1010E0005FE40E94D5090E94C70C9B01AC0120500F
:1010F00030404040504806C0C801B7010E94C70CAC
:101100009B01AC01B901CA011F910F91FF90EF90B3
:101110000895A0E0B0E0EFE8F8E00C94370FDC01B0
:101120002B01FA019C91923008F439C1EB018881BE
:10113000823008F433C1943069F4843009F02FC14F
:1011400011969C9111978981981709F428C1A0E004
:10115000B1E025C1843009F421C18230A9F4923074
:1011600009F01DC19A01AD0188E0EA010990AE01C4
:10117000E90109929E018150C1F7E201898111962E
:101180009C918923818308C1923009F407C112968A
:101190002D903C901397EB018A819B811496AD9022
:1011A000BD90CD90DC901797EC80FD800E811F8163
:1011B0009101281B390BB90137FF04C06627772737
:1011C000621B730B603271050CF061C012161306BE
:1011D0006CF537014801062E04C0969487947794E5
:1011E00067940A94D2F721E030E040E050E004C078
:1011F000220F331F441F551F6A95D2F721503040EC
:10120000404050402E213F214023512321153105DC
:101210004105510521F021E030E040E050E0790146
:101220008A01E628F728082919293CC0232BD1F187
:10123000260E371E35014601062E04C0969487946B
:10124000779467940A94D2F721E030E040E050E0D0
:1012500004C0220F331F441F551F6A95D2F7215037
:101260003040404050402A213B214C215D21211536
:1012700031054105510521F021E030E040E050E02A
:1012800059016A01A628B728C828D9280BC0821599
:1012900093052CF01C01AA24BB24650103C0EE2495
:1012A000FF24870111969C91D20111968C91981779
:1012B00009F445C0992339F0A80197012A193B097F
:1012C0004C095D0906C0A60195012E193F09400B86
:1012D000510B57FD08C0118233822282248335834B
:1012E000468357831DC081E0818333822282882711
:1012F0009927DC01821B930BA40BB50B8483958388
:10130000A683B7830DC0220F331F441F551F2483AC
:1013100035834683578382819381019793838283A8
:101320002481358146815781DA01C9010197A109DC
:10133000B1098F5F9F4FAF4FBF4328F30BC091831D
:1013400033822282EA0CFB1C0C1D1D1DE482F582F7
:101350000683178383E0808324813581468157810A
:1013600057FF1AC0C901AA2797FDA095BA2F81700F
:101370009070A070B0705695479537952795822B41
:10138000932BA42BB52B84839583A683B78382816B
:101390009381019693838283DF0101C0D201CD0145
:1013A000CDB7DEB7E2E10C94530FA0E2B0E0EBED75
:1013B000F9E00C94430F69837A838B839C832D839C
:1013C0003E834F835887E9E0EE2EF12CEC0EFD1E94
:1013D000CE010196B7010E943F0E8E010F5E1F4F96
:1013E000CE010596B8010E943F0E8A8991E08927B7
:1013F0008A8BC701B801AE01475E5F4F0E94890822
:101400000E946A0DA096E6E00C945F0FA0E2B0E0A7
:10141000ECE0FAE00C94430F69837A838B839C831E
:101420002D833E834F835887F9E0EF2EF12CEC0E8D
:10143000FD1ECE010196B7010E943F0E8E010F5E88
:101440001F4FCE010596B8010E943F0EC701B8019B
:10145000AE01475E5F4F0E9489080E946A0DA09608
:10146000E6E00C945F0FA0E2B0E0E9E3FAE00C9450
:10147000370F69837A838B839C832D833E834F83CD
:101480005887CE010196BE01675F7F4F0E943F0ED5
:10149000CE010596BE016F5E7F4F0E943F0E99857B
:1014A000923088F089898230C8F0943019F4823003
:1014B00051F404C0843029F4923081F480E091E04A
:1014C000C6C0923049F420E09A858A89981321E0B9
:1014D0002A87CE010996BBC0823049F420E09A8564
:1014E0008A89981321E02A8BCE014196B0C02D84C1
:1014F0003E844F8458886D887E888F88988CEE242F
:10150000FF248701AA24BB24650140E050E060E08D
:1015100070E0E0E0F0E0C10181709070892BE9F0AB
:10152000E60CF71C081D191D9A01AB012A0D3B1D85
:101530004C1D5D1D80E090E0A0E0B0E0E614F704F3
:101540000805190520F481E090E0A0E0B0E0BA01C0
:10155000A901480F591F6A1F7B1FAA0CBB1CCC1C7A
:10156000DD1C97FE08C081E090E0A0E0B0E0A82A72
:10157000B92ACA2ADB2A3196E032F10549F0660C15
:10158000771C881C991C5694479437942794C3CF92
:10159000FA85EA892B893C898B859C85280F391F20
:1015A0002E5F3F4F17C0CA0181709070892B61F088
:1015B00016950795F794E79480E090E0A0E0B0E8F6
:1015C000E82AF92A0A2B1B2B76956795579547959C
:1015D0002F5F3F4F77FDE7CF0CC0440F551F661FAD
:1015E000771F17FD4160EE0CFF1C001F111F2150DB
:1015F0003040403090E0590790E0690790E4790767
:1016000060F32B8F3C8FDB01CA018F779070A07045
:10161000B07080349105A105B10561F447FD0AC0A1
:10162000E114F1040105110529F0405C5F4F6F4F93
:101630007F4F40781A8EFE1711F081E08A8F4D8F10
:101640005E8F6F8F78A383E0898FCE0149960E94C9
:101650006A0DA096E2E10C94530FA8E1B0E0E3E339
:10166000FBE00C943F0F69837A838B839C832D83EB
:101670003E834F835887B9E0EB2EF12CEC0EFD1E14
:10168000CE010196B7010E943F0E8E010F5E1F4FE3
:10169000CE010596B8010E943F0E2985223008F43C
:1016A0007EC03989323010F4B8017CC08A859A89AD
:1016B00089278A87243011F0223031F4231709F06A
:1016C0006EC060E071E06EC0343039F41D861E8655
:1016D0001F86188A1C861B8604C0323021F484E0E1
:1016E0008987B7015FC02B853C858B899C89281B26
:1016F000390B3C872B87ED84FE840F851889AD88D4
:10170000BE88CF88D88CEA14FB040C051D0540F474
:10171000EE0CFF1C001F111F215030403C872B870F
:1017200020E030E040E050E080E090E0A0E0B0E475
:1017300060E070E0EA14FB040C051D0540F0282B66
:10174000392B4A2B5B2BEA18FB080C091D09B695AF
:10175000A79597958795EE0CFF1C001F111F6F5FD3
:101760007F4F6F31710531F7DA01C9018F779070C2
:10177000A070B07080349105A105B10561F427FD1A
:101780000AC0E114F1040105110529F0205C3F4F66
:101790004F4F5F4F20782D873E874F87588BBE0174
:1017A000675F7F4FCB010E946A0D6896EAE00C9458
:1017B0005B0FA8E1B0E0EFEDFBE00C94430F698311
:1017C0007A838B839C832D833E834F83588789E064
:1017D000E82EF12CEC0EFD1ECE010196B7010E9401
:1017E0003F0E8E010F5E1F4FCE010596B8010E947D
:1017F0003F0E8985823040F08989823028F0C70108
:10180000B8010E94B70E01C08FEF6896E6E00C9415
:101810005F0FA8E1B0E0EFE0FCE00C94430F6983B8
:101820007A838B839C832D833E834F83588789E003
:10183000E82EF12CEC0EFD1ECE010196B7010E94A0
:101840003F0E8E010F5E1F4FCE010596B8010E941C
:101850003F0E8985823040F08989823028F0C701A7
:10186000B8010E94B70E01C08FEF6896E6E00C94B5
:101870005F0FA8E1B0E0EFE3FCE00C94430F698355
:101880007A838B839C832D833E834F83588789E0A3
:10189000E82EF12CEC0EFD1ECE010196B7010E9440
:1018A0003F0E8E010F5E1F4FCE010596B8010E94BC
:1018B0003F0E8985823040F08989823028F0C70147
:1018C000B8010E94B70E01C081E06896E6E00C9472
:1018D0005F0FA8E0B0E0EFE6FCE00C94400F9B0146
:1018E000AC0183E08983DA01C9018827B7FD8395BC
:1018F0009927AA27BB27B82E211531054105510587
:1019000019F482E089833AC08823A9F0203080E06E
:10191000380780E0480780E8580729F460E070E065
:1019200080E09FEC30C0EE24FF248701E21AF30A26
:10193000040B150B02C079018A018EE1C82ED12C4F
:10194000DC82CB82ED82FE820F831887C801B7014B
:101950000E941B0D01971816190684F4082E04C066
:10196000EE0CFF1C001F111F0A94D2F7ED82FE82BD
:101970000F831887C81AD90ADC82CB82BA82CE01BB
:1019800001960E946A0D2896E9E00C945C0FACE089
:10199000B0E0EDECFCE00C94470F69837A838B8315
:1019A0009C83CE010196BE016B5F7F4F0E943F0E6C
:1019B0008D81823061F1823050F1843021F48E814A
:1019C000882351F12EC02F81388537FD20C06E81CC
:1019D0002F3131051CF06623F9F023C08EE190E031
:1019E000821B930B29853A854B855C8504C05695EF
:1019F0004795379527958A95D2F76623B1F050958C
:101A00004095309521953F4F4F4F5F4F0EC020E0DE
:101A100030E040E050E009C02FEF3FEF4FEF5FE7CD
:101A200004C020E030E040E050E8B901CA012C9643
:101A3000E2E00C94630FEF92FF920F931F937B01F0
:101A40008C0180E0E81680E0F80681E0080780E07D
:101A5000180788F48FEFE816F1040105110531F03D
:101A600028F088E090E0A0E0B0E017C080E090E0CF
:101A7000A0E0B0E012C080E0E81680E0F80680E068
:101A8000080781E0180728F088E190E0A0E0B0E0C6
:101A900004C080E190E0A0E0B0E020E230E040E06F
:101AA00050E0281B390B4A0B5B0B04C016950795B9
:101AB000F794E7948A95D2F7F701E85FFE4F8081AB
:101AC000281B310941095109C9011F910F91FF904C
:101AD000EF900895DF92EF92FF920F931F93FC0116
:101AE000E480F58006811781D1808081823048F4BE
:101AF00080E090E0A0E1B0E0E82AF92A0A2B1B2B55
:101B0000A5C0843009F49FC0823021F4EE24FF2464
:101B1000870105C0E114F1040105110519F4E0E0A5
:101B2000F0E096C0628173819FEF623879070CF014
:101B30005BC022E83FEF261B370B2A3131052CF022
:101B400020E030E040E050E02AC0B801A701022EBA
:101B500004C076956795579547950A94D2F781E02A
:101B600090E0A0E0B0E004C0880F991FAA1FBB1F3F
:101B70002A95D2F70197A109B1098E219F21A023AF
:101B8000B1230097A105B10521F081E090E0A0E02C
:101B9000B0E09A01AB01282B392B4A2B5B2BDA01E1
:101BA000C9018F779070A070B07080349105A10545
:101BB000B10539F427FF09C0205C3F4F4F4F5F4FFD
:101BC00004C0215C3F4F4F4F5F4FE0E0F0E020301A
:101BD000A0E03A07A0E04A07A0E45A0710F0E1E0CD
:101BE000F0E079018A0127C06038710564F5FB01D6
:101BF000E158FF4FD801C7018F779070A070B07087
:101C000080349105A105B10539F4E7FE0DC080E4EB
:101C100090E0A0E0B0E004C08FE390E0A0E0B0E08E
:101C2000E80EF91E0A1F1B1F17FF05C01695079522
:101C3000F794E794319687E016950795F794E79423
:101C40008A95D1F705C0EE24FF248701EFEFF0E07D
:101C50006E2F679566276795902F9F77D794DD2421
:101C6000D7948E2F8695492F462B582F5D29B70183
:101C7000CA011F910F91FF90EF90DF900895FC0132
:101C8000DB01408151812281622F6F7770E0221F3A
:101C90002227221F9381892F880F822B282F30E043
:101CA000991F9927991F11969C931197211531051A
:101CB000A9F5411551056105710511F482E037C0A0
:101CC00082E89FEF13969C938E9312979A01AB0133
:101CD00067E0220F331F441F551F6A95D1F783E039
:101CE0008C930DC0220F331F441F551F12968D91E8
:101CF0009C911397019713969C938E931297203083
:101D000080E0380780E0480780E4580758F31496CD
:101D10002D933D934D935C93179708952F3F310575
:101D200079F4411551056105710519F484E08C932E
:101D3000089564FF03C081E08C9312C01C9210C010
:101D40002F57304013963C932E93129783E08C9339
:101D500087E0440F551F661F771F8A95D1F770647F
:101D600014964D935D936D937C93179708951F93ED
:101D7000DC01FB019C91923008F447C080818230E5
:101D800008F443C0943051F411961C91843099F5B5
:101D90008181682F70E0611B71093FC0843021F0A0
:101DA000923031F48230B9F18181882389F12DC0DC
:101DB00011961C9111978230F1F081811817D9F496
:101DC00012962D913C9113978281938182179307EC
:101DD00094F028173907BCF014968D919D910D90C1
:101DE000BC91A02D24813581468157812817390760
:101DF0004A075B0718F4112341F00AC082179307C2
:101E0000A407B50740F4112319F061E070E005C0A4
:101E10006FEF7FEF02C060E070E0CB011F9108958B
:101E200097FB092E07260AD077FD04D00CD006D0E8
:101E300000201AF4709561957F4F0895F6F79095FC
:101E400081959F4F0895AA1BBB1B51E107C0AA1F94
:101E5000BB1FA617B70710F0A61BB70B881F991F4B
:101E60005A95A9F780959095BC01CD0108952F92C0
:101E70003F924F925F926F927F928F929F92AF921A
:101E8000BF92CF92DF92EF92FF920F931F93CF9367
:101E9000DF93CDB7DEB7CA1BDB0B0FB6F894DEBFFE
:101EA0000FBECDBF09942A88398848885F846E8424
:101EB0007D848C849B84AA84B984C884DF80EE806E
:101EC000FD800C811B81AA81B981CE0FD11D0FB677
:101ED000F894DEBF0FBECDBFED01089503D0E395AA
:101EE00028C00FC13FD0E8F3E894E0E0BB279F573C
:101EF000F0F02AED3FE049EC06C0EE0FBB0F661F85
:101F0000771F881F28F0B23A62077307840728F00A
:101F1000B25A620B730B840BE3959A9572F7803873
:101F200030F49A95BB0F661F771F881FD2F7904831
:101F3000DCC0EF93E0FF06C0A2EA2AED3FE049ECE7
:101F40005FEB5DD000D10F90039401FC9058ECE85A
:101F5000F0E0DAC057FD9058440F551F59F05F3F2D
:101F600071F04795880F97FB991F61F09F3F79F0BB
:101F700087950895121613061406551FF2CF46953D
:101F8000F1DF08C0161617061806991FF1CF8695BF
:101F90007105610508940895E5DFE0F09E37D8F0FB
:101FA0009639B8F49E3848F4672F782F8827985FC1
:101FB000F9CF86957795679593959539D0F3B62F98
:101FC000B1706B0F711D811D20F487957795679512
:101FD00093956EC088C0C9C09F9384DF0F9007FCA3
:101FE000EE5FA7CFA2D030F0A7D020F031F49F3F12
:101FF00011F41EF486C00EF4E095E7FB53C0E92F00
:10200000A9DF80F3BA17620773078407950718F0F2
:1020100071F49EF5A9C00EF4E0950B2EBA2FA02DF9
:102020000B01B90190010C01CA01A0011124FF2785
:10203000591B99F0593F50F4503E68F11A16F04080
:10204000A22F232F342F4427585FF3CF469537957F
:102050002795A795F0405395C9F77EF41F16BA0B44
:10206000620B730B840BBAF09150A1F0FF0FBB1FF2
:10207000661F771F881FC2F70EC0BA0F621F731F3B
:10208000841F48F4879577956795B795F7959E3F98
:1020900008F0B3CF9395880F08F09927EE0F979526
:1020A0008795089597F99F6780E870E060E008954C
:1020B000882371F4772321F09850872B762F07C05F
:1020C000662311F499270DC09051862B70E060E0D3
:1020D0002AF09A95660F771F881FDAF7880F969572
:1020E000879597F908959F3F31F0915020F4879597
:1020F00077956795B795880F911D9695879597F970
:1021000008959FEF80EC08959F938F937F936F9333
:10211000FF93EF939B01AC01A6D9EF91FF912BD0D8
:102120002F913F914F915F919EC900240A941616FA
:10213000170618060906089500240A9412161306B5
:10214000140605060895092E0394000C11F4882343
:1021500052F0BB0F40F4BF2B11F460FF04C06F5F5F
:102160007F4F8F4F9F4F0895E894BB2766277727AF
:10217000CB0197F90895DF93CF931F930F93FF92AD
:10218000EF92DF927B018C01689405C0DA2EEF019B
:1021900021D0FE01E894A591259135914591559165
:1021A000AEF3EF012CDFFE019701A801DA9479F775
:1021B000DF90EF90FF900F911F91CF91DF910895E5
:1021C000B4DF28F0B9DF18F0952309F06BCF99CF71
:1021D0001124CBCFBFDEA0F3959FD1F3950F50E034
:1021E000551F629FF001729FBB27F00DB11D639FC9
:1021F000AA27F00DB11DAA1F649F6627B00DA11D6F
:10220000661F829F2227B00DA11D621F739FB00D14
:10221000A11D621F839FA00D611D221F749F332784
:10222000A00D611D231F849F600D211D822F762F1D
:102230006A2F11249F5750408AF0E1F088234AF01A
:10224000EE0FFF1FBB1F661F771F881F9150504066
:10225000A9F79E3F510570F025CF87CF5F3FECF384
:10226000983EDCF3869577956795B795F795E79552
:102270009F5FC1F7FE2B880F911D9695879597F963
:062280000895F894FFCF61
:102286000000000000000000000102020303030337
:1022960004040404040404040505050505050505F0
:1022A60005050505050505050606060606060606D0
:1022B60006060606060606060606060606060606B8
:1022C60006060606060606060707070707070707A0
:1022D6000707070707070707070707070707070788
:1022E6000707070707070707070707070707070778
:1022F6000707070707070707070707070707070768
:10230600070707070707070708080808080808084F
:102316000808080808080808080808080808080837
:102326000808080808080808080808080808080827
:102336000808080808080808080808080808080817
:102346000808080808080808080808080808080807
:1023560008080808080808080808080808080808F7
:1023660008080808080808080808080808080808E7
:1023760008080808080808080808080808080808D7
:0823860008080808080808080F
:00000001FF
